{
  "address": "0x4F74F64c39a0aaf5031973f31924381080DA977E",
  "abi": [
    {
      "inputs": [],
      "stateMutability": "nonpayable",
      "type": "constructor"
    },
    {
      "anonymous": false,
      "inputs": [
        {
          "indexed": true,
          "internalType": "address",
          "name": "owner",
          "type": "address"
        },
        {
          "indexed": true,
          "internalType": "address",
          "name": "approved",
          "type": "address"
        },
        {
          "indexed": true,
          "internalType": "uint256",
          "name": "tokenId",
          "type": "uint256"
        }
      ],
      "name": "Approval",
      "type": "event"
    },
    {
      "anonymous": false,
      "inputs": [
        {
          "indexed": true,
          "internalType": "address",
          "name": "owner",
          "type": "address"
        },
        {
          "indexed": true,
          "internalType": "address",
          "name": "operator",
          "type": "address"
        },
        {
          "indexed": false,
          "internalType": "bool",
          "name": "approved",
          "type": "bool"
        }
      ],
      "name": "ApprovalForAll",
      "type": "event"
    },
    {
      "anonymous": false,
      "inputs": [
        {
          "indexed": true,
          "internalType": "address",
          "name": "previousOwner",
          "type": "address"
        },
        {
          "indexed": true,
          "internalType": "address",
          "name": "newOwner",
          "type": "address"
        }
      ],
      "name": "OwnershipTransferred",
      "type": "event"
    },
    {
      "anonymous": false,
      "inputs": [
        {
          "indexed": true,
          "internalType": "address",
          "name": "from",
          "type": "address"
        },
        {
          "indexed": true,
          "internalType": "address",
          "name": "to",
          "type": "address"
        },
        {
          "indexed": true,
          "internalType": "uint256",
          "name": "tokenId",
          "type": "uint256"
        }
      ],
      "name": "Transfer",
      "type": "event"
    },
    {
      "inputs": [
        {
          "internalType": "address",
          "name": "to",
          "type": "address"
        },
        {
          "internalType": "uint256",
          "name": "tokenId",
          "type": "uint256"
        }
      ],
      "name": "approve",
      "outputs": [],
      "stateMutability": "nonpayable",
      "type": "function"
    },
    {
      "inputs": [
        {
          "internalType": "address",
          "name": "owner",
          "type": "address"
        }
      ],
      "name": "balanceOf",
      "outputs": [
        {
          "internalType": "uint256",
          "name": "",
          "type": "uint256"
        }
      ],
      "stateMutability": "view",
      "type": "function"
    },
    {
      "inputs": [
        {
          "internalType": "uint256",
          "name": "tokenId",
          "type": "uint256"
        }
      ],
      "name": "getApproved",
      "outputs": [
        {
          "internalType": "address",
          "name": "",
          "type": "address"
        }
      ],
      "stateMutability": "view",
      "type": "function"
    },
    {
      "inputs": [],
      "name": "getBaseURI",
      "outputs": [
        {
          "internalType": "string",
          "name": "",
          "type": "string"
        }
      ],
      "stateMutability": "view",
      "type": "function"
    },
    {
      "inputs": [
        {
          "internalType": "address",
          "name": "owner",
          "type": "address"
        },
        {
          "internalType": "address",
          "name": "operator",
          "type": "address"
        }
      ],
      "name": "isApprovedForAll",
      "outputs": [
        {
          "internalType": "bool",
          "name": "",
          "type": "bool"
        }
      ],
      "stateMutability": "view",
      "type": "function"
    },
    {
      "inputs": [],
      "name": "maxSupply",
      "outputs": [
        {
          "internalType": "uint256",
          "name": "",
          "type": "uint256"
        }
      ],
      "stateMutability": "view",
      "type": "function"
    },
    {
      "inputs": [
        {
          "internalType": "address",
          "name": "_to",
          "type": "address"
        },
        {
          "internalType": "uint256",
          "name": "_tokenId",
          "type": "uint256"
        }
      ],
      "name": "mint",
      "outputs": [],
      "stateMutability": "nonpayable",
      "type": "function"
    },
    {
      "inputs": [
        {
          "internalType": "address",
          "name": "newOwner",
          "type": "address"
        },
        {
          "internalType": "uint256",
          "name": "amount",
          "type": "uint256"
        }
      ],
      "name": "mintBatch",
      "outputs": [],
      "stateMutability": "nonpayable",
      "type": "function"
    },
    {
      "inputs": [
        {
          "internalType": "address",
          "name": "newOwner",
          "type": "address"
        }
      ],
      "name": "mintOne",
      "outputs": [],
      "stateMutability": "nonpayable",
      "type": "function"
    },
    {
      "inputs": [],
      "name": "name",
      "outputs": [
        {
          "internalType": "string",
          "name": "",
          "type": "string"
        }
      ],
      "stateMutability": "view",
      "type": "function"
    },
    {
      "inputs": [],
      "name": "nextMintIndex",
      "outputs": [
        {
          "internalType": "uint256",
          "name": "",
          "type": "uint256"
        }
      ],
      "stateMutability": "view",
      "type": "function"
    },
    {
      "inputs": [],
      "name": "owner",
      "outputs": [
        {
          "internalType": "address",
          "name": "",
          "type": "address"
        }
      ],
      "stateMutability": "view",
      "type": "function"
    },
    {
      "inputs": [
        {
          "internalType": "uint256",
          "name": "tokenId",
          "type": "uint256"
        }
      ],
      "name": "ownerOf",
      "outputs": [
        {
          "internalType": "address",
          "name": "",
          "type": "address"
        }
      ],
      "stateMutability": "view",
      "type": "function"
    },
    {
      "inputs": [],
      "name": "renounceOwnership",
      "outputs": [],
      "stateMutability": "nonpayable",
      "type": "function"
    },
    {
      "inputs": [
        {
          "internalType": "address",
          "name": "from",
          "type": "address"
        },
        {
          "internalType": "address",
          "name": "to",
          "type": "address"
        },
        {
          "internalType": "uint256",
          "name": "tokenId",
          "type": "uint256"
        }
      ],
      "name": "safeTransferFrom",
      "outputs": [],
      "stateMutability": "nonpayable",
      "type": "function"
    },
    {
      "inputs": [
        {
          "internalType": "address",
          "name": "from",
          "type": "address"
        },
        {
          "internalType": "address",
          "name": "to",
          "type": "address"
        },
        {
          "internalType": "uint256",
          "name": "tokenId",
          "type": "uint256"
        },
        {
          "internalType": "bytes",
          "name": "_data",
          "type": "bytes"
        }
      ],
      "name": "safeTransferFrom",
      "outputs": [],
      "stateMutability": "nonpayable",
      "type": "function"
    },
    {
      "inputs": [
        {
          "internalType": "address",
          "name": "operator",
          "type": "address"
        },
        {
          "internalType": "bool",
          "name": "approved",
          "type": "bool"
        }
      ],
      "name": "setApprovalForAll",
      "outputs": [],
      "stateMutability": "nonpayable",
      "type": "function"
    },
    {
      "inputs": [
        {
          "internalType": "string",
          "name": "baseURI_",
          "type": "string"
        }
      ],
      "name": "setBaseURI",
      "outputs": [],
      "stateMutability": "nonpayable",
      "type": "function"
    },
    {
      "inputs": [
        {
          "internalType": "bytes4",
          "name": "interfaceId",
          "type": "bytes4"
        }
      ],
      "name": "supportsInterface",
      "outputs": [
        {
          "internalType": "bool",
          "name": "",
          "type": "bool"
        }
      ],
      "stateMutability": "view",
      "type": "function"
    },
    {
      "inputs": [],
      "name": "symbol",
      "outputs": [
        {
          "internalType": "string",
          "name": "",
          "type": "string"
        }
      ],
      "stateMutability": "view",
      "type": "function"
    },
    {
      "inputs": [
        {
          "internalType": "uint256",
          "name": "tokenId",
          "type": "uint256"
        }
      ],
      "name": "tokenURI",
      "outputs": [
        {
          "internalType": "string",
          "name": "",
          "type": "string"
        }
      ],
      "stateMutability": "view",
      "type": "function"
    },
    {
      "inputs": [
        {
          "internalType": "address",
          "name": "from",
          "type": "address"
        },
        {
          "internalType": "address",
          "name": "to",
          "type": "address"
        },
        {
          "internalType": "uint256",
          "name": "tokenId",
          "type": "uint256"
        }
      ],
      "name": "transferFrom",
      "outputs": [],
      "stateMutability": "nonpayable",
      "type": "function"
    },
    {
      "inputs": [
        {
          "internalType": "address",
          "name": "newOwner",
          "type": "address"
        }
      ],
      "name": "transferOwnership",
      "outputs": [],
      "stateMutability": "nonpayable",
      "type": "function"
    }
  ],
  "transactionHash": "0xa555e031223ebf4a067dbfec9ad1068723133b2757cb76d0457dd650a699c086",
  "args": [],
  "numDeployments": 1,
  "solcInputHash": "1bb1dbb284ee44b5a10dd1f2739b5473",
  "bytecode": "0x6000600755612710600855610100604052604260808181529062001b0460a0398051620000359160099160209091019062000125565b503480156200004357600080fd5b50604080518082018252600f81526e26b7b1b5a2a9219b9918aa37b5b2b760891b60208083019182528351808501909452600384526214d65360ea1b908401528151919291620000969160009162000125565b508051620000ac90600190602084019062000125565b505050620000c9620000c3620000cf60201b60201c565b620000d3565b62000207565b3390565b600680546001600160a01b038381166001600160a01b0319831681179093556040519116919082907f8be0079c531659141344cd1fd0a4f28419497f9722a3daafe3b4186f6b6457e090600090a35050565b8280546200013390620001cb565b90600052602060002090601f016020900481019282620001575760008555620001a2565b82601f106200017257805160ff1916838001178555620001a2565b82800160010185558215620001a2579182015b82811115620001a257825182559160200191906001019062000185565b50620001b0929150620001b4565b5090565b5b80821115620001b05760008155600101620001b5565b600181811c90821680620001e057607f821691505b6020821081036200020157634e487b7160e01b600052602260045260246000fd5b50919050565b6118ed80620002176000396000f3fe608060405234801561001057600080fd5b506004361061014d5760003560e01c806370a08231116100c3578063b88d4fde1161007c578063b88d4fde146102a7578063c87b56dd146102ba578063d5abeb01146102cd578063e985e9c5146102d6578063f2fde38b14610312578063fa695a971461032557600080fd5b806370a0823114610258578063714c53981461026b578063715018a6146102735780638da5cb5b1461027b57806395d89b411461028c578063a22cb4651461029457600080fd5b8063248b71fc11610115578063248b71fc146101e257806328bcef04146101f557806340c10f191461020c57806342842e0e1461021f57806355f804b3146102325780636352211e1461024557600080fd5b806301ffc9a71461015257806306fdde031461017a578063081812fc1461018f578063095ea7b3146101ba57806323b872dd146101cf575b600080fd5b610165610160366004611357565b610338565b60405190151581526020015b60405180910390f35b61018261038a565b60405161017191906113cc565b6101a261019d3660046113df565b61041c565b6040516001600160a01b039091168152602001610171565b6101cd6101c8366004611414565b6104b6565b005b6101cd6101dd36600461143e565b6105cb565b6101cd6101f0366004611414565b6105fc565b6101fe60075481565b604051908152602001610171565b6101cd61021a366004611414565b6106c4565b6101cd61022d36600461143e565b6106fc565b6101cd610240366004611506565b610717565b6101a26102533660046113df565b610754565b6101fe61026636600461154f565b6107cb565b610182610852565b6101cd610861565b6006546001600160a01b03166101a2565b610182610897565b6101cd6102a236600461156a565b6108a6565b6101cd6102b53660046115a6565b6108b1565b6101826102c83660046113df565b6108e9565b6101fe60085481565b6101656102e4366004611622565b6001600160a01b03918216600090815260056020908152604080832093909416825291909152205460ff1690565b6101cd61032036600461154f565b6109c4565b6101cd61033336600461154f565b610a5f565b60006001600160e01b031982166380ac58cd60e01b148061036957506001600160e01b03198216635b5e139f60e01b145b8061038457506301ffc9a760e01b6001600160e01b03198316145b92915050565b60606000805461039990611655565b80601f01602080910402602001604051908101604052809291908181526020018280546103c590611655565b80156104125780601f106103e757610100808354040283529160200191610412565b820191906000526020600020905b8154815290600101906020018083116103f557829003601f168201915b5050505050905090565b6000818152600260205260408120546001600160a01b031661049a5760405162461bcd60e51b815260206004820152602c60248201527f4552433732313a20617070726f76656420717565727920666f72206e6f6e657860448201526b34b9ba32b73a103a37b5b2b760a11b60648201526084015b60405180910390fd5b506000908152600460205260409020546001600160a01b031690565b60006104c182610754565b9050806001600160a01b0316836001600160a01b03160361052e5760405162461bcd60e51b815260206004820152602160248201527f4552433732313a20617070726f76616c20746f2063757272656e74206f776e656044820152603960f91b6064820152608401610491565b336001600160a01b038216148061054a575061054a81336102e4565b6105bc5760405162461bcd60e51b815260206004820152603860248201527f4552433732313a20617070726f76652063616c6c6572206973206e6f74206f7760448201527f6e6572206e6f7220617070726f76656420666f7220616c6c00000000000000006064820152608401610491565b6105c68383610b01565b505050565b6105d53382610b6f565b6105f15760405162461bcd60e51b81526004016104919061168f565b6105c6838383610c66565b6006546001600160a01b031633146106265760405162461bcd60e51b8152600401610491906116e0565b60085461063490600261172b565b81600754610642919061172b565b106106855760405162461bcd60e51b815260206004820152601360248201527213585e081cdd5c1c1b1e48195e18d959591959606a1b6044820152606401610491565b60005b818110156105c65761069c83600754610e02565b600780549060006106ac83611743565b919050555080806106bc90611743565b915050610688565b6006546001600160a01b031633146106ee5760405162461bcd60e51b8152600401610491906116e0565b6106f88282610e02565b5050565b6105c6838383604051806020016040528060008152506108b1565b6006546001600160a01b031633146107415760405162461bcd60e51b8152600401610491906116e0565b80516106f89060099060208401906112a8565b6000818152600260205260408120546001600160a01b0316806103845760405162461bcd60e51b815260206004820152602960248201527f4552433732313a206f776e657220717565727920666f72206e6f6e657869737460448201526832b73a103a37b5b2b760b91b6064820152608401610491565b60006001600160a01b0382166108365760405162461bcd60e51b815260206004820152602a60248201527f4552433732313a2062616c616e636520717565727920666f7220746865207a65604482015269726f206164647265737360b01b6064820152608401610491565b506001600160a01b031660009081526003602052604090205490565b606061085c610f44565b905090565b6006546001600160a01b0316331461088b5760405162461bcd60e51b8152600401610491906116e0565b6108956000610f53565b565b60606001805461039990611655565b6106f8338383610fa5565b6108bb3383610b6f565b6108d75760405162461bcd60e51b81526004016104919061168f565b6108e384848484611073565b50505050565b6000818152600260205260409020546060906001600160a01b03166109685760405162461bcd60e51b815260206004820152602f60248201527f4552433732314d657461646174613a2055524920717565727920666f72206e6f60448201526e3732bc34b9ba32b73a103a37b5b2b760891b6064820152608401610491565b6000610972610f44565b9050600081511161099257604051806020016040528060008152506109bd565b8061099c846110a6565b6040516020016109ad92919061175c565b6040516020818303038152906040525b9392505050565b6006546001600160a01b031633146109ee5760405162461bcd60e51b8152600401610491906116e0565b6001600160a01b038116610a535760405162461bcd60e51b815260206004820152602660248201527f4f776e61626c653a206e6577206f776e657220697320746865207a65726f206160448201526564647265737360d01b6064820152608401610491565b610a5c81610f53565b50565b6006546001600160a01b03163314610a895760405162461bcd60e51b8152600401610491906116e0565b600854610a9790600161172b565b60075410610add5760405162461bcd60e51b815260206004820152601360248201527213585e081cdd5c1c1b1e48195e18d959591959606a1b6044820152606401610491565b610ae981600754610e02565b60078054906000610af983611743565b919050555050565b600081815260046020526040902080546001600160a01b0319166001600160a01b0384169081179091558190610b3682610754565b6001600160a01b03167f8c5be1e5ebec7d5bd14f71427d1e84f3dd0314c0f7b2291e5b200ac8c7c3b92560405160405180910390a45050565b6000818152600260205260408120546001600160a01b0316610be85760405162461bcd60e51b815260206004820152602c60248201527f4552433732313a206f70657261746f7220717565727920666f72206e6f6e657860448201526b34b9ba32b73a103a37b5b2b760a11b6064820152608401610491565b6000610bf383610754565b9050806001600160a01b0316846001600160a01b03161480610c2e5750836001600160a01b0316610c238461041c565b6001600160a01b0316145b80610c5e57506001600160a01b0380821660009081526005602090815260408083209388168352929052205460ff165b949350505050565b826001600160a01b0316610c7982610754565b6001600160a01b031614610cdd5760405162461bcd60e51b815260206004820152602560248201527f4552433732313a207472616e736665722066726f6d20696e636f72726563742060448201526437bbb732b960d91b6064820152608401610491565b6001600160a01b038216610d3f5760405162461bcd60e51b8152602060048201526024808201527f4552433732313a207472616e7366657220746f20746865207a65726f206164646044820152637265737360e01b6064820152608401610491565b610d4a600082610b01565b6001600160a01b0383166000908152600360205260408120805460019290610d739084906117a0565b90915550506001600160a01b0382166000908152600360205260408120805460019290610da190849061172b565b909155505060008181526002602052604080822080546001600160a01b0319166001600160a01b0386811691821790925591518493918716917fddf252ad1be2c89b69c2b068fc378daa952ba7f163c4a11628f55a4df523b3ef91a4505050565b6001600160a01b038216610e585760405162461bcd60e51b815260206004820181905260248201527f4552433732313a206d696e7420746f20746865207a65726f20616464726573736044820152606401610491565b6000818152600260205260409020546001600160a01b031615610ebd5760405162461bcd60e51b815260206004820152601c60248201527f4552433732313a20746f6b656e20616c7265616479206d696e746564000000006044820152606401610491565b6001600160a01b0382166000908152600360205260408120805460019290610ee690849061172b565b909155505060008181526002602052604080822080546001600160a01b0319166001600160a01b03861690811790915590518392907fddf252ad1be2c89b69c2b068fc378daa952ba7f163c4a11628f55a4df523b3ef908290a45050565b60606009805461039990611655565b600680546001600160a01b038381166001600160a01b0319831681179093556040519116919082907f8be0079c531659141344cd1fd0a4f28419497f9722a3daafe3b4186f6b6457e090600090a35050565b816001600160a01b0316836001600160a01b0316036110065760405162461bcd60e51b815260206004820152601960248201527f4552433732313a20617070726f766520746f2063616c6c6572000000000000006044820152606401610491565b6001600160a01b03838116600081815260056020908152604080832094871680845294825291829020805460ff191686151590811790915591519182527f17307eab39ab6107e8899845ad3d59bd9653f200f220920489ca2b5937696c31910160405180910390a3505050565b61107e848484610c66565b61108a848484846111a7565b6108e35760405162461bcd60e51b8152600401610491906117b7565b6060816000036110cd5750506040805180820190915260018152600360fc1b602082015290565b8160005b81156110f757806110e181611743565b91506110f09050600a8361181f565b91506110d1565b60008167ffffffffffffffff8111156111125761111261147a565b6040519080825280601f01601f19166020018201604052801561113c576020820181803683370190505b5090505b8415610c5e576111516001836117a0565b915061115e600a86611833565b61116990603061172b565b60f81b81838151811061117e5761117e611847565b60200101906001600160f81b031916908160001a9053506111a0600a8661181f565b9450611140565b60006001600160a01b0384163b1561129d57604051630a85bd0160e11b81526001600160a01b0385169063150b7a02906111eb90339089908890889060040161185d565b6020604051808303816000875af1925050508015611226575060408051601f3d908101601f191682019092526112239181019061189a565b60015b611283573d808015611254576040519150601f19603f3d011682016040523d82523d6000602084013e611259565b606091505b50805160000361127b5760405162461bcd60e51b8152600401610491906117b7565b805181602001fd5b6001600160e01b031916630a85bd0160e11b149050610c5e565b506001949350505050565b8280546112b490611655565b90600052602060002090601f0160209004810192826112d6576000855561131c565b82601f106112ef57805160ff191683800117855561131c565b8280016001018555821561131c579182015b8281111561131c578251825591602001919060010190611301565b5061132892915061132c565b5090565b5b80821115611328576000815560010161132d565b6001600160e01b031981168114610a5c57600080fd5b60006020828403121561136957600080fd5b81356109bd81611341565b60005b8381101561138f578181015183820152602001611377565b838111156108e35750506000910152565b600081518084526113b8816020860160208601611374565b601f01601f19169290920160200192915050565b6020815260006109bd60208301846113a0565b6000602082840312156113f157600080fd5b5035919050565b80356001600160a01b038116811461140f57600080fd5b919050565b6000806040838503121561142757600080fd5b611430836113f8565b946020939093013593505050565b60008060006060848603121561145357600080fd5b61145c846113f8565b925061146a602085016113f8565b9150604084013590509250925092565b634e487b7160e01b600052604160045260246000fd5b600067ffffffffffffffff808411156114ab576114ab61147a565b604051601f8501601f19908116603f011681019082821181831017156114d3576114d361147a565b816040528093508581528686860111156114ec57600080fd5b858560208301376000602087830101525050509392505050565b60006020828403121561151857600080fd5b813567ffffffffffffffff81111561152f57600080fd5b8201601f8101841361154057600080fd5b610c5e84823560208401611490565b60006020828403121561156157600080fd5b6109bd826113f8565b6000806040838503121561157d57600080fd5b611586836113f8565b91506020830135801515811461159b57600080fd5b809150509250929050565b600080600080608085870312156115bc57600080fd5b6115c5856113f8565b93506115d3602086016113f8565b925060408501359150606085013567ffffffffffffffff8111156115f657600080fd5b8501601f8101871361160757600080fd5b61161687823560208401611490565b91505092959194509250565b6000806040838503121561163557600080fd5b61163e836113f8565b915061164c602084016113f8565b90509250929050565b600181811c9082168061166957607f821691505b60208210810361168957634e487b7160e01b600052602260045260246000fd5b50919050565b60208082526031908201527f4552433732313a207472616e736665722063616c6c6572206973206e6f74206f6040820152701ddb995c881b9bdc88185c1c1c9bdd9959607a1b606082015260800190565b6020808252818101527f4f776e61626c653a2063616c6c6572206973206e6f7420746865206f776e6572604082015260600190565b634e487b7160e01b600052601160045260246000fd5b6000821982111561173e5761173e611715565b500190565b60006001820161175557611755611715565b5060010190565b6000835161176e818460208801611374565b835190830190611782818360208801611374565b6917b4b73337973539b7b760b11b9101908152600a01949350505050565b6000828210156117b2576117b2611715565b500390565b60208082526032908201527f4552433732313a207472616e7366657220746f206e6f6e20455243373231526560408201527131b2b4bb32b91034b6b83632b6b2b73a32b960711b606082015260800190565b634e487b7160e01b600052601260045260246000fd5b60008261182e5761182e611809565b500490565b60008261184257611842611809565b500690565b634e487b7160e01b600052603260045260246000fd5b6001600160a01b0385811682528416602082015260408101839052608060608201819052600090611890908301846113a0565b9695505050505050565b6000602082840312156118ac57600080fd5b81516109bd8161134156fea2646970667358221220dc0d8bad35602bc858bfa554036060a4ef8cd41c64e4e0fa5b729dee066cad9364736f6c634300080d003368747470733a2f2f73796c746172652d6574682d72657665616c2d6173736574732e73332e61702d6e6f727468656173742d312e616d617a6f6e6177732e636f6d2f",
  "devdoc": {
    "kind": "dev",
    "methods": {
      "approve(address,uint256)": {
        "details": "See {IERC721-approve}."
      },
      "balanceOf(address)": {
        "details": "See {IERC721-balanceOf}."
      },
      "getApproved(uint256)": {
        "details": "See {IERC721-getApproved}."
      },
      "isApprovedForAll(address,address)": {
        "details": "See {IERC721-isApprovedForAll}."
      },
      "name()": {
        "details": "See {IERC721Metadata-name}."
      },
      "owner()": {
        "details": "Returns the address of the current owner."
      },
      "ownerOf(uint256)": {
        "details": "See {IERC721-ownerOf}."
      },
      "renounceOwnership()": {
        "details": "Leaves the contract without owner. It will not be possible to call `onlyOwner` functions anymore. Can only be called by the current owner. NOTE: Renouncing ownership will leave the contract without an owner, thereby removing any functionality that is only available to the owner."
      },
      "safeTransferFrom(address,address,uint256)": {
        "details": "See {IERC721-safeTransferFrom}."
      },
      "safeTransferFrom(address,address,uint256,bytes)": {
        "details": "See {IERC721-safeTransferFrom}."
      },
      "setApprovalForAll(address,bool)": {
        "details": "See {IERC721-setApprovalForAll}."
      },
      "supportsInterface(bytes4)": {
        "details": "See {IERC165-supportsInterface}."
      },
      "symbol()": {
        "details": "See {IERC721Metadata-symbol}."
      },
      "tokenURI(uint256)": {
        "details": "See {IERC721Metadata-tokenURI}."
      },
      "transferFrom(address,address,uint256)": {
        "details": "See {IERC721-transferFrom}."
      },
      "transferOwnership(address)": {
        "details": "Transfers ownership of the contract to a new account (`newOwner`). Can only be called by the current owner."
      }
    },
    "version": 1
  },
  "userdoc": {
    "kind": "user",
    "methods": {},
    "version": 1
  },
  "storageLayout": {
    "storage": [
      {
        "astId": 821,
        "contract": "contracts/erc721-mock/erc721Mock.sol:Erc721Mock",
        "label": "_name",
        "offset": 0,
        "slot": "0",
        "type": "t_string_storage"
      },
      {
        "astId": 823,
        "contract": "contracts/erc721-mock/erc721Mock.sol:Erc721Mock",
        "label": "_symbol",
        "offset": 0,
        "slot": "1",
        "type": "t_string_storage"
      },
      {
        "astId": 827,
        "contract": "contracts/erc721-mock/erc721Mock.sol:Erc721Mock",
        "label": "_owners",
        "offset": 0,
        "slot": "2",
        "type": "t_mapping(t_uint256,t_address)"
      },
      {
        "astId": 831,
        "contract": "contracts/erc721-mock/erc721Mock.sol:Erc721Mock",
        "label": "_balances",
        "offset": 0,
        "slot": "3",
        "type": "t_mapping(t_address,t_uint256)"
      },
      {
        "astId": 835,
        "contract": "contracts/erc721-mock/erc721Mock.sol:Erc721Mock",
        "label": "_tokenApprovals",
        "offset": 0,
        "slot": "4",
        "type": "t_mapping(t_uint256,t_address)"
      },
      {
        "astId": 841,
        "contract": "contracts/erc721-mock/erc721Mock.sol:Erc721Mock",
        "label": "_operatorApprovals",
        "offset": 0,
        "slot": "5",
        "type": "t_mapping(t_address,t_mapping(t_address,t_bool))"
      },
      {
        "astId": 7,
        "contract": "contracts/erc721-mock/erc721Mock.sol:Erc721Mock",
        "label": "_owner",
        "offset": 0,
        "slot": "6",
        "type": "t_address"
      },
      {
        "astId": 2761,
        "contract": "contracts/erc721-mock/erc721Mock.sol:Erc721Mock",
        "label": "nextMintIndex",
        "offset": 0,
        "slot": "7",
        "type": "t_uint256"
      },
      {
        "astId": 2764,
        "contract": "contracts/erc721-mock/erc721Mock.sol:Erc721Mock",
        "label": "maxSupply",
        "offset": 0,
        "slot": "8",
        "type": "t_uint256"
      },
      {
        "astId": 2767,
        "contract": "contracts/erc721-mock/erc721Mock.sol:Erc721Mock",
        "label": "_baseURIextended",
        "offset": 0,
        "slot": "9",
        "type": "t_string_storage"
      }
    ],
    "types": {
      "t_address": {
        "encoding": "inplace",
        "label": "address",
        "numberOfBytes": "20"
      },
      "t_bool": {
        "encoding": "inplace",
        "label": "bool",
        "numberOfBytes": "1"
      },
      "t_mapping(t_address,t_bool)": {
        "encoding": "mapping",
        "key": "t_address",
        "label": "mapping(address => bool)",
        "numberOfBytes": "32",
        "value": "t_bool"
      },
      "t_mapping(t_address,t_mapping(t_address,t_bool))": {
        "encoding": "mapping",
        "key": "t_address",
        "label": "mapping(address => mapping(address => bool))",
        "numberOfBytes": "32",
        "value": "t_mapping(t_address,t_bool)"
      },
      "t_mapping(t_address,t_uint256)": {
        "encoding": "mapping",
        "key": "t_address",
        "label": "mapping(address => uint256)",
        "numberOfBytes": "32",
        "value": "t_uint256"
      },
      "t_mapping(t_uint256,t_address)": {
        "encoding": "mapping",
        "key": "t_uint256",
        "label": "mapping(uint256 => address)",
        "numberOfBytes": "32",
        "value": "t_address"
      },
      "t_string_storage": {
        "encoding": "bytes",
        "label": "string",
        "numberOfBytes": "32"
      },
      "t_uint256": {
        "encoding": "inplace",
        "label": "uint256",
        "numberOfBytes": "32"
      }
    }
  }
}